SYN Flood Ouput
===============

boolean@boolean-vb ~/woork $ sudo tcpdump -vvv -nn -i eth0 -s 1500 -S -X 'src 67.215.65.132' or 'dst 67.215.65.132'
tcpdump: listening on eth0, link-type EN10MB (Ethernet), capture size 1500 bytes
09:46:51.254145 IP (tos 0x0, ttl 64, id 1, offset 0, flags [none], proto TCP (6), length 40)
    192.168.1.4.43039 > 67.215.65.132.8080: Flags [S], cksum 0x8103 (correct), seq 40, win 8192, length 0
	0x0000:  4500 0028 0001 0000 4006 33c8 c0a8 0104  E..(....@.3.....
	0x0010:  43d7 4184 a81f 1f90 0000 0028 0000 0000  C.A........(....
	0x0020:  5002 2000 8103 0000                      P.......
09:46:51.279010 IP (tos 0x20, ttl 56, id 64959, offset 0, flags [DF], proto TCP (6), length 44)
    67.215.65.132.8080 > 192.168.1.4.43039: Flags [S.], cksum 0xf11e (correct), seq 1855334785, ack 41, win 65535, options [mss 1460], length 0
	0x0000:  4520 002c fdbf 4000 3806 fde4 43d7 4184  E..,..@.8...C.A.
	0x0010:  c0a8 0104 1f90 a81f 6e96 2981 0000 0029  ........n.)....)
	0x0020:  6012 ffff f11e 0000 0204 05b4 0000       `.............
09:46:51.279092 IP (tos 0x20, ttl 64, id 0, offset 0, flags [DF], proto TCP (6), length 40)
    192.168.1.4.43039 > 67.215.65.132.8080: Flags [R], cksum 0xa100 (correct), seq 41, win 0, length 0
	0x0000:  4520 0028 0000 4000 4006 f3a8 c0a8 0104  E..(..@.@.......
	0x0010:  43d7 4184 a81f 1f90 0000 0029 0000 0000  C.A........)....
	0x0020:  5004 0000 a100 0000                      P.......
09:46:51.306034 IP (tos 0x0, ttl 64, id 1, offset 0, flags [none], proto TCP (6), length 40)
    173.194.46.51.6394 > 67.215.65.132.8080: Flags [S], cksum 0xf5df (correct), seq 40, win 8192, length 0
	0x0000:  4500 0028 0001 0000 4006 197f adc2 2e33  E..(....@......3
	0x0010:  43d7 4184 18fa 1f90 0000 0028 0000 0000  C.A........(....
	0x0020:  5002 2000 f5df 0000                      P.......
09:46:52.358912 IP (tos 0x0, ttl 64, id 1, offset 0, flags [none], proto TCP (6), length 40)
    173.194.46.51.8688 > 67.215.65.132.8080: Flags [S], cksum 0xece9 (correct), seq 40, win 8192, length 0
	0x0000:  4500 0028 0001 0000 4006 197f adc2 2e33  E..(....@......3
	0x0010:  43d7 4184 21f0 1f90 0000 0028 0000 0000  C.A.!......(....
	0x0020:  5002 2000 ece9 0000                      P.......
09:46:53.406208 IP (tos 0x0, ttl 64, id 1, offset 0, flags [none], proto TCP (6), length 40)
    173.194.46.51.24759 > 67.215.65.132.8080: Flags [S], cksum 0xae22 (correct), seq 40, win 8192, length 0
	0x0000:  4500 0028 0001 0000 4006 197f adc2 2e33  E..(....@......3
	0x0010:  43d7 4184 60b7 1f90 0000 0028 0000 0000  C.A.`......(....
	0x0020:  5002 2000 ae22 0000                      P...."..
09:46:54.451431 IP (tos 0x0, ttl 64, id 1, offset 0, flags [none], proto TCP (6), length 40)
    173.194.46.51.63553 > 67.215.65.132.8080: Flags [S], cksum 0x1698 (correct), seq 40, win 8192, length 0
	0x0000:  4500 0028 0001 0000 4006 197f adc2 2e33  E..(....@......3
	0x0010:  43d7 4184 f841 1f90 0000 0028 0000 0000  C.A..A.....(....
	0x0020:  5002 2000 1698 0000                      P.......
09:46:55.503115 IP (tos 0x0, ttl 64, id 1, offset 0, flags [none], proto TCP (6), length 40)
    173.194.46.51.19668 > 67.215.65.132.8080: Flags [S], cksum 0xc205 (correct), seq 40, win 8192, length 0
	0x0000:  4500 0028 0001 0000 4006 197f adc2 2e33  E..(....@......3
	0x0010:  43d7 4184 4cd4 1f90 0000 0028 0000 0000  C.A.L......(....
	0x0020:  5002 2000 c205 0000                      P.......
09:46:56.557944 IP (tos 0x0, ttl 64, id 1, offset 0, flags [none], proto TCP (6), length 40)
    173.194.46.51.3063 > 67.215.65.132.8080: Flags [S], cksum 0x02e3 (correct), seq 40, win 8192, length 0
	0x0000:  4500 0028 0001 0000 4006 197f adc2 2e33  E..(....@......3
	0x0010:  43d7 4184 0bf7 1f90 0000 0028 0000 0000  C.A........(....
	0x0020:  5002 2000 02e3 0000                      P.......
09:46:57.601994 IP (tos 0x0, ttl 64, id 1, offset 0, flags [none], proto TCP (6), length 40)
    173.194.46.51.41093 > 67.215.65.132.8080: Flags [S], cksum 0x6e54 (correct), seq 40, win 8192, length 0
	0x0000:  4500 0028 0001 0000 4006 197f adc2 2e33  E..(....@......3
	0x0010:  43d7 4184 a085 1f90 0000 0028 0000 0000  C.A........(....
	0x0020:  5002 2000 6e54 0000                      P...nT..
09:46:58.642888 IP (tos 0x0, ttl 64, id 1, offset 0, flags [none], proto TCP (6), length 40)
    173.194.46.51.36692 > 67.215.65.132.8080: Flags [S], cksum 0x7f85 (correct), seq 40, win 8192, length 0
	0x0000:  4500 0028 0001 0000 4006 197f adc2 2e33  E..(....@......3
	0x0010:  43d7 4184 8f54 1f90 0000 0028 0000 0000  C.A..T.....(....
	0x0020:  5002 2000 7f85 0000                      P.......
09:46:59.699876 IP (tos 0x0, ttl 64, id 1, offset 0, flags [none], proto TCP (6), length 40)
    173.194.46.51.65284 > 67.215.65.132.8080: Flags [S], cksum 0x0fd5 (correct), seq 40, win 8192, length 0
	0x0000:  4500 0028 0001 0000 4006 197f adc2 2e33  E..(....@......3
	0x0010:  43d7 4184 ff04 1f90 0000 0028 0000 0000  C.A........(....
	0x0020:  5002 2000 0fd5 0000                      P.......
09:47:00.750240 IP (tos 0x0, ttl 64, id 1, offset 0, flags [none], proto TCP (6), length 40)
    173.194.46.51.10971 > 67.215.65.132.8080: Flags [S], cksum 0xe3fe (correct), seq 40, win 8192, length 0
	0x0000:  4500 0028 0001 0000 4006 197f adc2 2e33  E..(....@......3
	0x0010:  43d7 4184 2adb 1f90 0000 0028 0000 0000  C.A.*......(....
	0x0020:  5002 2000 e3fe 0000                      P.......


